S01B000073626861743030365F6C6162375F70617274342E7372656352
S113000045C0000060C000005EC000005CC000008D
S11300105AC0000058C0000056C0000054C0000080
S113002052C0000050C000004EC000004CC0000090
S11300304AC000008BC0000046C0000044C000005D
S113004042C0000040C000003EC000003CC00000B0
S11300503AC0000038C0000036C0000034C00000C0
S113006032C0000030C000002EC000002CC00000D0
S11300702AC0000028C0000026C0000024C00000E0
S113008022C0000020C000001EC0000011241FBEBA
S1130090CFEFD0E4DEBFCDBF11E0A0E0B1E0EAE6EF
S11300A0F7E000E00BBF02C007900D92AC30B1073F
S11300B0D9F721E0ACE0B1E001C01D92A332B20750
S11300C0E1F718D350C39CCFCF93DF93CDB7DEB7FE
S11300D081E890E02BE0FC01208388E890E02DE7A4
S11300E030E0FC01318320838FE690E022E0FC01C4
S11300F0208384E890E0FC01118210828091070142
S113010090910801A0910901B0910A0180930D0119
S113011090930E01A0930F01B09310018FE590E02E
S11301202FE530E0F90120812068FC0120830000E4
S1130130DF91CF910895CF93DF93CDB7DEB781E000
S113014080930C010000DF91CF9108951F920F92CC
S113015000905F000F92112400905B000F922F9388
S11301603F934F935F936F937F938F939F93AF933B
S1130170BF93EF93FF93CF93DF93CDB7DEB7809117
S11301800D0190910E01A0910F01B0911001019702
S1130190A109B10980930D0190930E01A0930F0161
S11301A0B093100180910D0190910E01A0910F0167
S11301B0B0911001892B8A2B8B2B89F4BCDF8091A1
S11301C0070190910801A0910901B0910A0180935F
S11301D00D0190930E01A0930F01B0931001000044
S11301E0DF91CF91FF91EF91BF91AF919F918F914B
S11301F07F916F915F914F913F912F910F9000925A
S11302005B000F9000925F000F901F901895CF93A2
S1130210DF9300D000D0CDB7DEB769837A838B83B8
S11302209C8389819A81AB81BC81809307019093DF
S11302300801A0930901B0930A01809107019091EC
S11302400801A0910901B0910A0180930D019093D6
S11302500E01A0930F01B093100100000F900F90B6
S11302600F900F90DF91CF910895CF93DF93CDB787
S1130270DEB7809113019091140181309105E1F072
S11302808130910518F0029769F145C02091180159
S11302903091190180910001909101018217930717
S11302A0A8F581E090E090931401809313011092DB
S11302B01901109218012AC02091180130911901D6
S11302C080910001909101018217930708F582E063
S11302D090E09093140180931301109219011092ED
S11302E0180116C020911801309119018091000164
S11302F0909101018217930768F4109214011092EF
S11303001301109219011092180104C0000003C0D7
S1130310000001C00000809113019091140181300C
S1130320910599F08130910518F00297D9F027C012
S113033081E080931A01809118019091190101962E
S113034090931901809318011AC082E080931A01D6
S1130350809118019091190101969093190180934D
S113036018010DC084E080931A01809118019091C6
S1130370190101969093190180931801000000005F
S1130380DF91CF910895CF93DF93CDB7DEB78091FE
S1130390150190911601009719F00197B9F02DC03D
S11303A0209120013091210180910201909103015B
S11303B082179307F8F481E090E0909316018093FC
S11303C01501109221011092200114C020912001E6
S11303D030912101809102019091030182179307CA
S11303E058F41092160110921501109221011092E6
S11303F0200102C0000001C000008091150190910D
S11304001601009719F0019771F019C088E08093E4
S11304102201809120019091210101969093210164
S1130420809320010CC010922201809120019091B0
S11304302101019690932101809320010000000086
S1130440DF91CF910895CF93DF93CDB7DEB780913D
S11304501101909112018130910509F445C0813058
S11304609105B8F0029709F06DC080E290E0FC01BC
S11304708081882F90E084709927892B09F45DC0CE
S1130480109212011092110110921D0110921C0180
S113049054C080E290E0FC018081882F90E0847059
S11304A09927892B59F482E090E09093120180936C
S11304B0110110921D0110921C0141C08091040190
S11304C0282F30E080911C0190911D0128173907D5
S11304D0B0F581E090E090931201809311011092A5
S11304E01D0110921C012BC080E290E0FC01808170
S11304F0882F90E084709927892B59F482E090E04A
S1130500909312018093110110921D0110921C010D
S113051018C080910401282F30E080911C01909133
S11305201D012817390768F4109212011092110165
S113053010921D0110921C0104C0000003C00000B1
S113054001C0000080911101909112018130910548
S1130550B1F08130910530F0029709F01CC010927F
S11305601B0119C080E180931B0180911C019091B3
S11305701D01019690931D0180931C010CC01092E3
S11305801B0180911C0190911D01019690931D0106
S113059080931C0100000000DF91CF910895CF9358
S11305A0DF93CDB7DEB780911E0190911F01823099
S11305B0910509F453C08330910528F4009751F054
S11305C0019751F15AC083309105B9F1049709F4A8
S11305D04AC053C080E290E0FC018081882F90E003
S11305E081709927892B39F081E090E090931F0165
S11305F080931E013DC080E290E0FC018081882F41
S113060090E082709927892B99F183E090E0909390
S11306101F0180931E012CC080E290E0FC018081C8
S1130620882F90E081709927892B21F582E090E052
S113063090931F0180931E011DC080E290E0FC0195
S11306408081882F90E082709927892BA9F484E017
S113065090E090931F0180931E010EC010921F0121
S113066010921E010AC010921F0110921E0105C0B3
S1130670000003C0000001C0000080911E019091A1
S11306801F018230910579F0049709F01BC0909105
S1130690040180910601981790F4809104018F5F02
S11306A0809304010CC09091040180910501891785
S11306B040F48091040181508093040102C0000041
S11306C001C000000000DF91CF910895CF93DF9324
S11306D0CDB7DEB785E290E030911A012091220176
S11306E0322B20911B01232BFC0120830000DF917E
S11306F0CF910895CF93DF93CDB7DEB784E290E036
S11307002FEFFC01208385E290E0FC01108281E25E
S113071090E0FC01108282E290E02FEFFC01208344
S113072061E070E080E090E072DDCEDC10921401B4
S11307301092130181E090E09093160180931501CB
S113074082E090E090931201809311018EDD1BDE14
S113075026DF79DEBBDF000080910C018823E1F302
S10D076010920C01F3CFF894FFCFC0
S10F076A2C01E8030201640100000000FF
S9030000FC
