S01100006C61623950617274312E73726563E3
S113000045C0000053C0000051C000004FC00000B4
S11300104DC000004BC0000049C0000047C00000B4
S113002045C0000043C0000041C000003FC00000C4
S11300303DC000003BC0000039C0000037C00000D4
S113004035C0000033C0000031C000002FC00000E4
S11300502DC000002BC0000029C0000027C00000F4
S113006025C0000023C0000021C000001FC0000004
S11300701DC000001BC0000019C0000017C0000014
S113008015C0000013C0000011C0000011241FBEE1
S1130090CFEFD0E4DEBFCDBF21E0A0E0B1E001C0EE
S11300A01D92AA30B207E1F7A7D141C3A9CF0F939C
S11300B01F93CF93DF9300D000D0CDB7DEB7698311
S11300C07A838B839C838091060190910701A09190
S11300D00801B09109019C01AD0169817A818B818C
S11300E09C81ACD1882309F471C020E030E0A901DF
S11300F069817A818B819C81A1D1882351F481E922
S113010090E021E930E0F90120812870FC0120838E
S113011009C081E990E021E930E0F9012081236000
S1130120FC01208328E539E344E75FE369817A81B0
S11301308B819C8183D1882344F488E990E02FEF5C
S11301403FEFFC013183208330C020E034E244EFF0
S113015056E469817A818B819C8182D2181634F4A9
S113016088E990E0FC01118210821FC008E910E0C8
S113017020E030E040E053E469817A818B819C8106
S113018073D2DC01CB019C01AD0160E074E284EF29
S11301909AE458D1DC01CB01BC01CD01BBD1DC0117
S11301A0CB010197F8019183808384E990E0FC01FD
S11301B01182108289819A81AB81BC81809306016E
S11301C090930701A0930801B093090100000F90D8
S11301D00F900F900F90DF91CF911F910F91089581
S11301E0CF93DF93CDB7DEB780E990E020E4FC0144
S11301F0208381E990E02BE0FC01208360E070E043
S1130200CB0155DF0000DF91CF910895CF93DF93A9
S1130210CDB7DEB780E290E0FC01808180930001DD
S113022080910001882F90E08170992721E0892B2B
S113023009F420E0822F8093010180910001882F2E
S113024090E08270992721E0892B09F420E0822F25
S11302508093020180910001882F90E08470992797
S113026021E0892B09F420E0822F809303018091FF
S11302700401909105018130910509F455C0813044
S1130280910540F08230910509F46FC0039709F499
S11302908DC0AEC080910101882371F0809102016C
S11302A0882351F480910301882331F481E090E0A4
S11302B0909305018093040180910101882371F4D6
S11302C080910201882351F080910301882331F445
S11302D082E090E0909305018093040180910101F4
S11302E0882371F480910201882351F480910301E1
S11302F0882331F083E090E090930501809304011A
S113030080910101882309F072C080910201882341
S113031009F06DC080910301882309F068C060E092
S113032070E0CB01C4DE63C0809101018823A1F099
S113033080910201882381F480910301882361F470
S113034081E090E0909305018093040164EA70EDEC
S113035082E893E4ACDE4CC01092050110920401D3
S113036060E070E0CB01A3DE43C0809101018823EB
S1130370A1F480910201882381F0809103018823F4
S113038061F482E090E090930501809304016BE7AF
S113039074ED82E993E48BDE2BC010920501109278
S11303A0040160E070E0CB0182DE22C08091010193
S11303B08823A1F480910201882381F480910301B0
S11303C0882361F083E090E0909305018093040119
S11303D064EA70ED84EA93E46ADE0AC010920501CF
S11303E01092040160E070E0CB0161DE01C0000006
S11303F00000DF91CF910895CF93DF93CDB7DEB79F
S113040081E290E0FC01108282E290E02FEFFC0197
S1130410208384E290E02FEFFC01208385E290E0CA
S1130420FC0110821092050110920401D9DE60E0F3
S113043070E48CE995E43BDEE9DEFECF9CD008F461
S113044081E008950CD0D2C0CAD040F0C1D030F0C1
S113045021F45F3F19F0B3C05111FCC0B6C0D7D02E
S113046098F39923C9F35523B1F3951B550BBB2777
S1130470AA2762177307840738F09F5F5F4F220F24
S1130480331F441FAA1FA9F333D00E2E3AF0E0E81D
S113049030D091505040E695001CCAF729D0FE2F69
S11304A027D0660F771F881FBB1F261737074807FB
S11304B0AB07B0E809F0BB0B802DBF01FF279358B1
S11304C05F4F2AF09E3F510568F079C0C3C05F3F7B
S11304D0ECF3983EDCF3869577956795B795F79599
S11304E09F5FC9F7880F911D9695879597F9089591
S11304F0E1E0660F771F881FBB1F6217730784072D
S1130500BA0720F0621B730B840BBA0BEE1F88F73B
S1130510E095089504D06894B1119CC008957FD0EB
S113052088F09F5790F0B92F9927B751A0F0D1F0D8
S1130530660F771F881F991F1AF0BA95C9F712C062
S1130540B13081F086D0B1E0089583C0672F782F51
S11305508827B85F39F0B93FCCF3869577956795CE
S1130560B395D9F73EF490958095709561957F4F3A
S11305708F4F9F4F0895990F0008550FAA0BE0E87D
S1130580FEEF16161706E807F907C0F01216130651
S1130590E407F50798F0621B730B840B950B39F491
S11305A00A2661F0232B242B252B21F408950A26F7
S11305B009F4A140A6958FEF811D811D089597F937
S11305C09F6780E870E060E008959FEF80EC0895F5
S11305D000240A941616170618060906089500241E
S11305E00A9412161306140605060895092E039498
S11305F0000C11F4882352F0BB0F40F4BF2B11F40C
S113060060FF04C06F5F7F4F8F4F9F4F089557FD6A
S11306109058440F551F59F05F3F71F04795880F6C
S113062097FB991F61F09F3F79F087950895121603
S113063013061406551FF2CF4695F1DF08C01616AF
S113064017061806991FF1CF869571056105089460
S11306500895E894BB2766277727CB0197F9089577
S11306608ADF08F48FEF08950BD0C0CFB1DF28F0F4
S1130670B6DF18F0952309F0A2CFA7CF1124EACF53
S1130680C6DFA0F3959FD1F3950F50E0551F629FED
S1130690F001729FBB27F00DB11D639FAA27F00DD7
S11306A0B11DAA1F649F6627B00DA11D661F829FFE
S11306B02227B00DA11D621F739FB00DA11D621FE3
S11306C0839FA00D611D221F749F3327A00D611D00
S11306D0231F849F600D211D822F762F6A2F1124E2
S11306E09F5750408AF0E1F088234AF0EE0FFF1F35
S11306F0BB1F661F771F881F91505040A9F79E3F6C
S1130700510570F05CCFA6CF5F3FECF3983EDCF36D
S1130710869577956795B795F795E7959F5FC1F7A8
S1130720FE2B880F911D9695879597F90895F89457
S1050730FFCFF5
S9030000FC
