:1000000045C0000060C000005EC000005CC0000091
:100010005AC0000058C0000056C0000054C0000084
:1000200052C0000050C000004EC000004CC0000094
:100030004AC000008BC0000046C0000044C0000061
:1000400042C0000040C000003EC000003CC00000B4
:100050003AC0000038C0000036C0000034C00000C4
:1000600032C0000030C000002EC000002CC00000D4
:100070002AC0000028C0000026C0000024C00000E4
:1000800022C0000020C000001EC0000011241FBEBE
:10009000CFEFD0E4DEBFCDBF11E0A0E0B1E0E8E5F6
:1000A000F3E000E00BBF02C007900D92A430B1074F
:1000B000D9F721E0A4E0B1E001C01D92AC30B20755
:1000C000E1F723D147C19CCFCF93DF93CDB7DEB704
:1000D00081E890E02BE0FC01208388E890E02DE7A8
:1000E00030E0FC01318320838FE690E022E0FC01C8
:1000F000208384E890E0FC0111821082809100014D
:1001000090910101A0910201B0910301809305013A
:1001100090930601A0930701B09308018FE590E04A
:100120002FE530E0F90120812068FC0120830000E8
:10013000DF91CF910895CF93DF93CDB7DEB781E004
:10014000809304010000DF91CF9108951F920F92D8
:1001500000905F000F92112400905B000F922F938C
:100160003F934F935F936F937F938F939F93AF933F
:10017000BF93EF93FF93CF93DF93CDB7DEB780911B
:10018000050190910601A0910701B0910801019726
:10019000A109B1098093050190930601A09307017D
:1001A000B09308018091050190910601A09107018B
:1001B000B0910801892B8A2B8B2B89F4BCDF8091AD
:1001C000000190910101A0910201B091030180937F
:1001D000050190930601A0930701B0930801000068
:1001E000DF91CF91FF91EF91BF91AF919F918F914F
:1001F0007F916F915F914F913F912F910F9000925E
:100200005B000F9000925F000F901F901895CF93A6
:10021000DF9300D000D0CDB7DEB769837A838B83BC
:100220009C8389819A81AB81BC81809300019093EA
:100230000101A0930201B09303018091000190910C
:100240000101A0910201B0910301809305019093F7
:100250000601A0930701B093080100000F900F90D2
:100260000F900F90DF91CF910895CF93DF93CDB78B
:10027000DEB78091090190910A018130910569F002
:100280008130910518F0029779F01CC081E090E070
:1002900090930A01809309011AC082E090E0909344
:1002A0000A018093090113C080910B01843019F475
:1002B00081E090E002C082E090E090930A01809398
:1002C000090105C010920A011092090100008091F5
:1002D000090190910A018130910519F0029729F0E6
:1002E0000AC081E080930B0106C080910B01880F4A
:1002F00080930B01000085E290E020910B01FC014E
:1003000020830000DF91CF910895CF93DF93CDB785
:10031000DEB784E290E02FEFFC01208385E290E0DD
:10032000FC01108268EE73E080E090E070DFCCDECC
:1003300080910B01816080930B0110920A01109251
:10034000090193DF0000809104018823E1F31092FA
:080350000401F7CFF894FFCF80
:0403580001000000A0
:00000001FF
