:100000004DC0000068C0000066C0000064C0000071
:1000100062C0000060C000005EC000005CC0000064
:100020005AC0000058C0000056C0000054C0000074
:1000300052C0000050C000004EC000004CC0000084
:100040004AC0000048C0000046C0000044C0000094
:1000500042C0000040C000003EC000003CC00000A4
:100060003AC0000038C0000036C0000034C00000B4
:1000700032C0000030C000002EC000002CC00000C4
:100080002AC0000028C0000026C00000A901AE015F
:10009000B301B801BD01C201C701CC0111241FBECB
:1000A000CFEFD0E4DEBFCDBF11E0A0E0B1E0E6E8E5
:1000B000F9E000E00BBF02C007900D92A034B10739
:1000C000D9F721E0A0E4B1E001C01D92A835B20744
:1000D000E1F798D256C494CFCF93DF93CDB7DEB774
:1000E00081E890E02BE0FC01208388E890E02DE798
:1000F00030E0FC01318320838FE690E022E0FC01B8
:10010000208384E890E0FC0111821082809100013C
:1001100090910101A0910201B091030180934201ED
:1001200090934301A0934401B09345018FE590E083
:100130002FE530E0F90120812068FC0120830000D8
:10014000DF91CF910895CF93DF9300D000D0CDB74A
:10015000DEB769837A838B839C8389819A81AB81A3
:10016000BC818093000190930101A0930201B093A0
:1001700003018091000190910101A0910201B091D1
:1001800003018093420190934301A0934401B093F3
:10019000450100000F900F900F900F90DF91CF91CD
:1001A00008950F931F93CF93DF9300D000D0CDB766
:1001B000DEB769837A838B839C8380914C01909115
:1001C0004D01A0914E01B0914F019C01AD0169819B
:1001D0007A818B819C8153D2882309F471C020E0FD
:1001E00030E0A90169817A818B819C8148D2882382
:1001F00051F481E990E021E930E0F9012081287093
:10020000FC01208309C081E990E021E930E0F90197
:1002100020812360FC01208328E539E344E75FE384
:1002200069817A818B819C812AD2882344F488E970
:1002300090E02FEF3FEFFC013183208330C020E0BE
:1002400034E244EF56E469817A818B819C8129D321
:10025000181634F488E990E0FC01118210821FC066
:1002600008E910E020E030E040E053E469817A8161
:100270008B819C811AD3DC01CB019C01AD0160E034
:1002800074E284EF9AE4FFD1DC01CB01BC01CD0123
:1002900062D2DC01CB010197F8019183808384E96C
:1002A00090E0FC011182108289819A81AB81BC812E
:1002B00080934C0190934D01A0934E01B0934F0158
:1002C00000000F900F900F900F90DF91CF911F9132
:1002D0000F910895CF93DF93CDB7DEB780E990E01B
:1002E00020E4FC01208381E990E02BE0FC012083E5
:1002F00060E070E0CB0155DF0000DF91CF91089501
:10030000CF93DF93CDB7DEB780E990E0FC01108298
:1003100081E990E0FC0110820000DF91CF91089507
:10032000CF93DF9300D0CDB7DEB79A8389838981DD
:100330009A81CC01A0E0B0E040E050E027E030E05E
:10034000841B950B2817390760F18A5B9F4FFC01CE
:100350000FC384EA90EDA2E8B3E426C08BE794E5EE
:10036000A4E9B3E421C084EA90EDA4EAB3E41CC09C
:1003700081E79DE9AEEAB3E417C080E090E0A4EC29
:10038000B3E412C080E090E0ACEDB3E40DC084EAC9
:1003900090EFA6EFB3E408C080E090EDA2E0B4E4F3
:1003A00003C080E090E0DC01BC01CD010F900F9014
:1003B000DF91CF910895CF93DF9300D0CDB7DEB713
:1003C0009A83898389819A818130910561F0813096
:1003D000910530F08230910549F0039751F00CC03F
:1003E0008DE790E00BC08AEF90E008C084EF91E0C9
:1003F00005C088EE93E002C080E090E00F900F907F
:10040000DF91CF910895CF93DF93CDB7DEB7809181
:100410005401909155018130910571F18130910520
:1004200018F00297B9F03EC080914001882369F02E
:1004300082E090E0909355018093540181E090E038
:1004400090935301809352012DC010925501109248
:10045000540128C080914B01882339F482E090E058
:1004600090935501809354011DC081E090E09093DA
:1004700055018093540116C080914B01882359F097
:1004800080914001882339F410924B01109255015C
:100490001092540107C081E090E090935501809341
:1004A000540100C00000DF91CF910895CF93DF93F6
:1004B000CDB7DEB780915201909153018130910503
:1004C00079F08130910538F082309105F1F0039791
:1004D00009F44EC054C010925301109252014FC003
:1004E00082E090E090935301809352011092490171
:1004F0001092480180912201909123015CDF90933A
:10050000470180934601E6DE3AC090914A0180910E
:100510003E01981790F42091480130914901809153
:100520004601909147018217930738F483E090E0E9
:10053000909355018093540122C090914A0180917B
:100540003E01981758F081E080934B0110924A01C8
:10055000D7DE109253011092520111C080914801D0
:10056000909149010196909349018093480107C0F9
:1005700082E090E0909353018093520100008091BB
:100580005201909153018230910519F00397E1F0E7
:1005900035C080914A01882F90E0880F991F8C5FA9
:1005A0009E4FFC0180819181BBDEDC01CB01BC014F
:1005B000CD01F7DD8091480190914901019690931A
:1005C0004901809348011AC01092490110924801D4
:1005D00080914A018F5F80934A0180914A01882F60
:1005E00090E0880F991F8E5D9E4FFC018081918164
:1005F000E2DE909347018093460100000000DF9106
:10060000CF910895CF93DF93CDB7DEB781E290E02D
:10061000FC01108282E290E02FEFFC01208384E253
:1006200090E02FEFFC01208385E290E0FC01108236
:1006300010925501109254011092530110925201E0
:1006400061E070E080E090E07EDD46DD80E290E0F9
:10065000FC018081882F90E08170992721E0892B0F
:1006600009F420E0822F80934001CDDE1FDF0000DF
:10067000809141018823E1F310924101E7CF9CD0A2
:1006800008F481E008950CD0D2C0CAD040F0C1D0A7
:1006900030F021F45F3F19F0B3C05111FCC0B6C077
:1006A000D7D098F39923C9F35523B1F3951B550B74
:1006B000BB27AA2762177307840738F09F5F5F4F35
:1006C000220F331F441FAA1FA9F333D00E2E3AF076
:1006D000E0E830D091505040E695001CCAF729D090
:1006E000FE2F27D0660F771F881FBB1F26173707DF
:1006F0004807AB07B0E809F0BB0B802DBF01FF270F
:1007000093585F4F2AF09E3F510568F079C0C3C0EF
:100710005F3FECF3983EDCF3869577956795B79548
:10072000F7959F5FC9F7880F911D9695879597F963
:100730000895E1E0660F771F881FBB1F62177307DC
:100740008407BA0720F0621B730B840BBA0BEE1FF1
:1007500088F7E095089504D06894B1119CC008957D
:100760007FD088F09F5790F0B92F9927B751A0F00C
:10077000D1F0660F771F881F991F1AF0BA95C9F735
:1007800012C0B13081F086D0B1E0089583C0672FE8
:10079000782F8827B85F39F0B93FCCF386957795E5
:1007A0006795B395D9F73EF49095809570956195CE
:1007B0007F4F8F4F9F4F0895990F0008550FAA0B39
:1007C000E0E8FEEF16161706E807F907C0F0121664
:1007D0001306E407F50798F0621B730B840B950B67
:1007E00039F40A2661F0232B242B252B21F40895BC
:1007F0000A2609F4A140A6958FEF811D811D089559
:1008000097F99F6780E870E060E008959FEF80ECC3
:10081000089500240A941616170618060906089566
:1008200000240A9412161306140605060895092ECC
:100830000394000C11F4882352F0BB0F40F4BF2B3B
:1008400011F460FF04C06F5F7F4F8F4F9F4F08957B
:1008500057FD9058440F551F59F05F3F71F0479571
:10086000880F97FB991F61F09F3F79F08795089556
:10087000121613061406551FF2CF4695F1DF08C075
:10088000161617061806991FF1CF86957105610592
:1008900008940895E894BB2766277727CB0197F93A
:1008A00008958ADF08F48FEF08950BD0C0CFB1DF31
:1008B00028F0B6DF18F0952309F0A2CFA7CF1124B6
:1008C000EACFC6DFA0F3959FD1F3950F50E0551FF7
:1008D000629FF001729FBB27F00DB11D639FAA2795
:1008E000F00DB11DAA1F649F6627B00DA11D661FE4
:1008F000829F2227B00DA11D621F739FB00DA11D05
:10090000621F839FA00D611D221F749F3327A00DBE
:10091000611D231F849F600D211D822F762F6A2F5A
:1009200011249F5750408AF0E1F088234AF0EE0FDF
:10093000FF1FBB1F661F771F881F91505040A9F7EC
:100940009E3F510570F05CCFA6CF5F3FECF3983E21
:10095000DCF3869577956795B795F795E7959F5F53
:10096000C1F7FE2B880F911D9695879597F90895ED
:10097000EE0FFF1F0024001C0BBE0790F691E02D28
:060980000994F894FFCF7A
:100986000100000007000200000005000800030047
:10099600040006000200030004000500060007002C
:1009A6000000030001000000020000000200010038
:1009B60001000200020001000100010001000D001B
:00000001FF
