S01100006C61623970617274332E73726563C1
S113000045C0000060C000005EC000005CC000008D
S11300105AC0000058C0000056C0000054C0000080
S113002052C0000050C000004EC000004CC0000090
S11300304AC0000048C0000046C0000044C00000A0
S113004042C0000040C000003EC000003CC00000B0
S11300503AC0000038C0000036C0000034C00000C0
S113006032C0000030C000002EC000002CC00000D0
S11300702AC0000028C0000026C0000024C00000E0
S113008022C0000020C000001EC0000011241FBEBA
S1130090CFEFD0E4DEBFCDBF11E0A0E0B1E0E8EBEC
S11300A0F2E000E00BBF02C007900D92A430B1074C
S11300B0D9F721E0A4E0B1E001C01D92AF30B2074E
S11300C0E1F7ABD0F7C09CCFCF93DF93CDB7DEB7CA
S11300D081E890E02BE0FC01208388E890E02DE7A4
S11300E030E0FC01318320838FE690E022E0FC01C4
S11300F0208384E890E0FC01118210828091000149
S113010090910101A0910201B09103018093060135
S113011090930701A0930801B09309018FE590E043
S11301202FE530E0F90120812068FC0120830000E4
S1130130DF91CF910895CF93DF9300D000D0CDB756
S1130140DEB769837A838B839C8389819A81AB81AF
S1130150BC818093000190930101A0930201B093AC
S113016003018091000190910101A0910201B091DD
S113017003018093060190930701A0930801B093B3
S1130180090100000F900F900F900F90DF91CF9115
S11301900895CF93DF93CDB7DEB780910D01909191
S11301A00E018130910511F18130910518F002970B
S11301B091F025C080910401882331F182E090E020
S11301C090930E0180930D0181E090E090930C01D7
S11301D080930B0119C080910A018823B9F081E052
S11301E090E090930E0180930D0110C08091040162
S11301F0882371F410920E0110920D0109C010921F
S11302000E0110920D0105C0000003C0000001C0E2
S113021000000000DF91CF910895CF93DF93CDB715
S1130220DEB781E290E0FC01108282E290E02FEFE1
S1130230FC01208384E290E02FEFFC01208385E21F
S113024090E0FC01108287E290E02FEFFC01208314
S113025088E290E0FC01108210920E0110920D01D0
S113026010920C0110920B0161E070E080E090E0CC
S113027062DF2ADF80E290E0FC018081882F90E039
S11302808170992721E0892B09F420E0822F809343
S113029004017FDF88E290E020910D0130910E018E
S11302A0FC0120830000809105018823E1F3109272
S10B02B00501E0CFF894FFCF33
S10702B8010000003D
S9030000FC
