:1000000045C0000060C000005EC000005CC0000091
:100010005AC0000058C0000056C0000054C0000084
:1000200052C0000050C000004EC000004CC0000094
:100030004AC000008BC0000046C0000044C0000061
:1000400042C0000040C000003EC000003CC00000B4
:100050003AC0000038C0000036C0000034C00000C4
:1000600032C0000030C000002EC000002CC00000D4
:100070002AC0000028C0000026C0000024C00000E4
:1000800022C0000020C000001EC0000011241FBEBE
:10009000CFEFD0E4DEBFCDBF11E0A0E0B1E0E0E102
:1000A000F4E000E00BBF02C007900D92AA30B10748
:1000B000D9F721E0AAE0B1E001C01D92A431B20756
:1000C000E1F75CD1A3C19CCFCF93DF93CDB7DEB76F
:1000D00081E890E02BE0FC01208388E890E02DE7A8
:1000E00030E0FC01318320838FE690E022E0FC01C8
:1000F000208384E890E0FC01118210828091050148
:1001000090910601A0910701B091080180930D0123
:1001100090930E01A0930F01B09310018FE590E032
:100120002FE530E0F90120812068FC0120830000E8
:10013000DF91CF910895CF93DF93CDB7DEB781E004
:1001400080930A010000DF91CF9108951F920F92D2
:1001500000905F000F92112400905B000F922F938C
:100160003F934F935F936F937F938F939F93AF933F
:10017000BF93EF93FF93CF93DF93CDB7DEB780911B
:100180000D0190910E01A0910F01B0911001019706
:10019000A109B10980930D0190930E01A0930F0165
:1001A000B093100180910D0190910E01A0910F016B
:1001B000B0911001892B8A2B8B2B89F4BCDF8091A5
:1001C000050190910601A0910701B091080180936B
:1001D0000D0190930E01A0930F01B0931001000048
:1001E000DF91CF91FF91EF91BF91AF919F918F914F
:1001F0007F916F915F914F913F912F910F9000925E
:100200005B000F9000925F000F901F901895CF93A6
:10021000DF9300D000D0CDB7DEB769837A838B83BC
:100220009C8389819A81AB81BC81809305019093E5
:100230000601A0930701B0930801809105019091F8
:100240000601A0910701B091080180930D019093E0
:100250000E01A0930F01B093100100000F900F90BA
:100260000F900F90DF91CF910895CF93DF93CDB78B
:10027000DEB7809111019091120182309105E9F071
:100280008330910528F4009751F0019779F05AC016
:100290008330910599F1049709F442C053C081E07D
:1002A00090E0909312018093110151C082E090E0A0
:1002B00090931201809311014AC080910B01882311
:1002C00039F083E090E090931201809311013FC0D8
:1002D00080910C01282F30E080910401882F90E05C
:1002E0000297821793071CF481E090E002C082E03D
:1002F00090E0909312018093110129C080910B012D
:10030000882339F484E090E09093120180931101E6
:100310001EC083E090E0909312018093110117C0FA
:1003200080910B01882339F081E090E090931201D5
:10033000809311010CC084E090E0909312018093AF
:10034000110105C01092120110921101000080915C
:100350001101909112018130910519F0029721F05D
:1003600009C010920C0106C080910C018F5F809330
:100370000C0100000000DF91CF910895CF93DF932F
:10038000CDB7DEB784E290E02FEFFC01208385E259
:1003900090E0FC01108282E290E0FC01108282E297
:1003A00090E02FEFFC0120836AEF70E080E090E0A6
:1003B0002EDF8ADE85E290E020910C01222F30E0D2
:1003C00020503F4FF9012081FC012083109212013F
:1003D0001092110180E290E0FC0180818170809395
:1003E0000B0143DF85E290E020910C01222F30E0E9
:1003F00020503F4FF9012081FC01208300008091B3
:100400000A018823E1F310920A01E4CFF894FFCFA8
:0A04100001020402040100000000D4
:00000001FF
