S01900006164753030335F6C6162365F70617274322E7372656332
S113000045C0000060C000005EC000005CC000008D
S11300105AC0000058C0000056C0000054C0000080
S113002052C0000050C000004EC000004CC0000090
S11300304AC00000D6C0000046C0000044C0000012
S113004042C0000040C000003EC000003CC00000B0
S11300503AC0000038C0000036C0000034C00000C0
S113006032C0000030C000002EC000002CC00000D0
S11300702AC0000028C0000026C0000024C00000E0
S113008022C0000020C000001EC0000011241FBEBA
S1130090CFEFD0E4DEBFCDBF11E0A0E0B1E0E6E2F7
S11300A0F4E000E00BBF02C007900D92A831B10745
S11300B0D9F721E0A8E1B1E001C01D92A432B20752
S11300C0E1F795D1AEC19CCF181619065CF00895DE
S11300D0000021503109E1F74F5F5F4F8417950706
S11300E019F4089540E050E027E033E0F1CF5E9842
S11300F088B95F9A00005F9882E090E0E5CF0895A8
S113010081E0F5CF0895813118F48158F0CF089536
S11301108155EDCF089584E690E0D6DF88E3E7DFEC
S113012086E0E5DF8FE0E3DF81E0E1DF8AE090E075
S1130130CBCF08955E9A88B95F9A00005F9881E0FA
S113014090E0C2CF08950F931F93CF93DF93182F9E
S1130150EB01D6DF8881882351F001E0010F812F64
S1130160D2DF8991E7DF102F88818111F6CFDF91EB
S1130170CF911F910F91089560930401709305012D
S113018080930601909307016093180170931901FD
S113019080931A0190931B0108958BE08093810052
S11301A08DE790E0909389008093880082E08093AB
S11301B06F00109285001092840080910401909148
S11301C00501A0910601B091070180931801909355
S11301D01901A0931A01B0931B018FB780688FBFD8
S11301E008951F920F920FB60F9211248F939F932D
S11301F0AF93BF938091180190911901A0911A01B6
S1130200B0911B010197A109B10980931801909342
S11302101901A0931A01B0931B01892B8A2B8B2BF4
S113022099F481E080931C0180910401909105016F
S1130230A0910601B09107018093180190931901D0
S1130240A0931A01B0931B01BF91AF919F918F911D
S11302500F900FBE0F901F90189580912001893048
S113026008F48F5F8093200181E04DDF80912001AD
S1130270805D60CF08958091200181118150809329
S1130280200181E040DF80912001805D53CF0895FB
S113029080B191E0282F217080FD90E090931D01A2
S11302A080911E01813059F030F0823081F083302A
S11302B009F43EC059C081E080931E0158C01092D9
S11302C01F011092220182E080931E015EC0211161
S11302D023C083E080931E0181E080932201109269
S11302E023018091210181FF0CC0B7DF809120019F
S11302F0893091F4609102017091030181E023DF60
S11303000BC0B9DF80912001811106C0609100010A
S11303107091010181E017DF809123018F5F809349
S1130320230180911E01813011F1823071F152C09C
S1130330222341F080912201882309F451C01092B4
S1130340220148C080912201811144C08091200182
S1130350893011F0811104C081E080931E0107C02F
S113036082E080931E0111C010921E0133C0C8DECA
S113037081E08093210185E08093200181E0C3DE48
S113038080912001805DD6DE25C08091230180FF0D
S11303900DC080911F01811104C080912101880F3B
S11303A003C08091210186958093210180912101D0
S11303B0823038F490911F019923B1F010921F01FB
S11303C009C0843038F080911F01811103C081E09D
S11303D080931F018091210185B980E094CE089516
S11303E0222309F4B3CFF6CF843088F7F3CF11B8C2
S11303F08FEF82B984B915B887B918B88AB91BB810
S11304008ADE66E970E080E090E0B6DEC6DE109237
S11304101E013EDF80911C018823E1F310921C0130
S1090420F8CFF894FFCFB1
S113042608010F01010000004C6F7365722100572B
S10B0436696E6E65722100007D
S9030000FC
