S01B000073626861743030365F6C6162385F70617274312E7372656354
S113000045C000004BC0000049C0000047C00000CC
S113001045C0000043C0000041C000003FC00000D4
S11300203DC000003BC0000039C0000037C00000E4
S113003035C0000033C0000031C000002FC00000F4
S11300402DC000002BC0000029C0000027C0000004
S113005025C0000023C0000021C000001FC0000014
S11300601DC000001BC0000019C0000017C0000024
S113007015C0000013C0000011C000000FC0000034
S11300800DC000000BC0000009C0000011241FBEF9
S1130090CFEFD0E4DEBFCDBF13D048C0B1CFCF93F4
S11300A0DF93CDB7DEB78AE790E02AE730E0F901C5
S11300B02081206EFC0120830000DF91CF91089500
S11300C0CF93DF9300D0CDB7DEB784E290E02FEF7B
S11300D0FC01208385E290E0FC0110828AE290E03A
S11300E02FEFFC0120838BE290E0FC01108281E27F
S11300F090E0FC01108282E290E02FEFFC0120836B
S1130100CEDF88E790E0FC01808191819A83898326
S113011085E290E02981FC0120838BE290E0298133
S11301203A81232F3327FC012083EBCFF894FFCFB0
S9030000FC
