:1000000045C0000060C000005EC000005CC0000091
:100010005AC0000058C0000056C0000054C0000084
:1000200052C0000050C000004EC000004CC0000094
:100030004AC0000048C0000046C0000044C00000A4
:1000400042C0000040C000003EC000003CC00000B4
:100050003AC0000038C0000036C0000034C00000C4
:1000600032C0000030C000002EC000002CC00000D4
:100070002AC0000028C0000026C0000024C00000E4
:1000800022C0000020C000001EC0000011241FBEBE
:10009000CFEFD0E4DEBFCDBF11E0A0E0B1E0E8EAF1
:1000A000F7E000E00BBF02C007900D92A032B1074D
:1000B000D9F721E0A0E2B1E001C01D92AE32B20753
:1000C000E1F7A6D16FC39CCF0F931F93CF93DF931C
:1000D00000D000D0CDB7DEB769837A838B839C8351
:1000E0008091260190912701A0912801B0912901CA
:1000F0009C01AD0169817A818B819C81DAD1882351
:1001000009F467C020E030E0A90169817A818B8120
:100110009C81CFD1882349F481E990E021E930E046
:10012000F90120812870FC01208328E539E344E7A8
:100130005FE369817A818B819C81BBD1882344F400
:1001400088E990E02FEF3FEFFC013183208330C03E
:1001500020E034E244EF56E469817A818B819C810E
:10016000BAD2181634F488E990E0FC0111821082AA
:100170001FC008E910E020E030E040E053E469816E
:100180007A818B819C81ABD2DC01CB019C01AD01DA
:1001900060E074E284EF9AE490D1DC01CB01BC0111
:1001A000CD01F3D1DC01CB010197F801918380836C
:1001B00084E990E0FC011182108289819A81AB81EF
:1001C000BC818093260190932701A0932801B093CE
:1001D000290100000F900F900F900F90DF91CF91A9
:1001E0001F910F910895CF93DF93CDB7DEB780E9CC
:1001F00090E020E4FC01208381E990E02BE0FC0109
:10020000208360E070E0CB015FDF0000DF91CF91E1
:100210000895CF93DF93CDB7DEB780E990E0FC017E
:10022000108281E990E0FC0110820000DF91CF9103
:100230000895CF93DF93CDB7DEB780912C019091D5
:100240002D018130910569F18130910530F08230C6
:10025000910571F1039799F146C08091220188239D
:1002600059F080912301882339F481E090E0909344
:100270002D0180932C0114C080912201882359F410
:1002800080912301882339F082E090E090932D0142
:1002900080932C0105C010922D0110922C0127C0D3
:1002A00026C083E090E090932D0180932C011FC025
:1002B00083E090E090932D0180932C0118C08091F1
:1002C0002201882321F480912301882339F083E0DF
:1002D00090E090932D0180932C0109C010922D0184
:1002E00010922C0104C010922D0110922C018091CB
:1002F0002C0190912D018130910519F0029719F18F
:1003000045C0809124019091250107974CF480917C
:100310002401909125010196909325018093240159
:100320008091240190912501880F991F880F991FB2
:1003300080509F4FFC0180819181A281B381BC01DB
:10034000CD01C2DE23C080912401909125011816B1
:1003500019064CF480912401909125010197909306
:100360002501809324018091240190912501880F1B
:10037000991F880F991F80509F4FFC0180819181A8
:10038000A281B381BC01CD019FDE00000000DF919E
:10039000CF910895CF93DF93CDB7DEB780912A0137
:1003A00090912B01009719F0019789F020C080915E
:1003B0002101882339F481E090E090932B01809310
:1003C0002A0115C010922B0110922A0110C08091B1
:1003D0002101882329F010922B0110922A0106C0D6
:1003E00081E090E090932B0180932A01000080919E
:1003F0002A0190912B01009719F0019719F004C080
:10040000F2DE02C006DF00000000DF91CF91089508
:10041000CF93DF93CDB7DEB781E290E0FC0110828D
:1004200082E290E02FEFFC01208384E290E02FEF46
:10043000FC01208385E290E0FC01108210922D01E6
:1004400010922C0181E090E090932B0180932A017F
:10045000CADE80E290E0FC018081809320018091DF
:100460002001882F90E08170992721E0892B09F4E1
:1004700020E0822F8093210180912001882F90E03D
:100480008270992721E0892B09F420E0822F809344
:10049000220180912001882F90E08470992721E02B
:1004A000892B09F420E0822F80932301C2DE72DFC2
:1004B000D0CF9CD008F481E008950CD0D2C0CAD02F
:1004C00040F0C1D030F021F45F3F19F0B3C05111BA
:1004D000FCC0B6C0D7D098F39923C9F35523B1F324
:1004E000951B550BBB27AA2762177307840738F0A3
:1004F0009F5F5F4F220F331F441FAA1FA9F333D002
:100500000E2E3AF0E0E830D091505040E695001CB5
:10051000CAF729D0FE2F27D0660F771F881FBB1F71
:10052000261737074807AB07B0E809F0BB0B802D4B
:10053000BF01FF2793585F4F2AF09E3F510568F097
:1005400079C0C3C05F3FECF3983EDCF386957795A6
:100550006795B795F7959F5FC9F7880F911D969599
:10056000879597F90895E1E0660F771F881FBB1FF5
:10057000621773078407BA0720F0621B730B840BA2
:10058000BA0BEE1F88F7E095089504D06894B11176
:100590009CC008957FD088F09F5790F0B92F99277D
:1005A000B751A0F0D1F0660F771F881F991F1AF07E
:1005B000BA95C9F712C0B13081F086D0B1E0089584
:1005C00083C0672F782F8827B85F39F0B93FCCF305
:1005D000869577956795B395D9F73EF49095809574
:1005E000709561957F4F8F4F9F4F0895990F000829
:1005F000550FAA0BE0E8FEEF16161706E807F907F5
:10060000C0F012161306E407F50798F0621B730B8F
:10061000840B950B39F40A2661F0232B242B252B10
:1006200021F408950A2609F4A140A6958FEF811DB3
:10063000811D089597F99F6780E870E060E0089554
:100640009FEF80EC089500240A94161617061806EA
:100650000906089500240A941216130614060506C6
:100660000895092E0394000C11F4882352F0BB0F57
:1006700040F4BF2B11F460FF04C06F5F7F4F8F4FBA
:100680009F4F089557FD9058440F551F59F05F3FF5
:1006900071F04795880F97FB991F61F09F3F79F0A4
:1006A00087950895121613061406551FF2CF469526
:1006B000F1DF08C0161617061806991FF1CF8695A8
:1006C0007105610508940895E894BB27662777278C
:1006D000CB0197F908958ADF08F48FEF08950BD0C6
:1006E000C0CFB1DF28F0B6DF18F0952309F0A2CF14
:1006F000A7CF1124EACFC6DFA0F3959FD1F3950FC2
:1007000050E0551F629FF001729FBB27F00DB11D95
:10071000639FAA27F00DB11DAA1F649F6627B00D25
:10072000A11D661F829F2227B00DA11D621F739F0E
:10073000B00DA11D621F839FA00D611D221F749F1C
:100740003327A00D611D231F849F600D211D822F63
:10075000762F6A2F11249F5750408AF0E1F08823AA
:100760004AF0EE0FFF1FBB1F661F771F881F9150B7
:100770005040A9F79E3F510570F05CCFA6CF5F3F78
:10078000ECF3983EDCF3869577956795B795F795EA
:10079000E7959F5FC1F7FE2B880F911D9695879572
:0807A00097F90895F894FFCFCA
:1007A8000AF782437BD49243A4D0A443719DAE43FD
:1007B8000000C4430000DC43A4F0F64300D0024428
:00000001FF
