:1000000045C0000060C000005EC000005CC0000091
:100010005AC0000058C0000056C0000054C0000084
:1000200052C0000050C000004EC000004CC0000094
:100030004AC0000048C0000046C0000044C00000A4
:1000400042C0000040C000003EC000003CC00000B4
:100050003AC0000038C0000036C0000034C00000C4
:1000600032C0000030C000002EC000002CC00000D4
:100070002AC0000028C0000026C0000024C00000E4
:1000800022C0000020C000001EC0000011241FBEBE
:10009000CFEFD0E4DEBFCDBF11E0A0E0B1E0E6E6F7
:1000A000F7E000E00BBF02C007900D92A030B1074F
:1000B000D9F721E0A0E0B1E001C01D92AA30B2075B
:1000C000E1F7A7D14EC39CCF0F931F93CF93DF933C
:1000D00000D000D0CDB7DEB769837A838B839C8351
:1000E0008091000190910101A0910201B091030162
:1000F0009C01AD0169817A818B819C81B9D1882372
:1001000009F471C020E030E0A90169817A818B8116
:100110009C81AED1882351F481E990E021E930E05F
:10012000F90120812870FC01208309C081E990E059
:1001300021E930E0F90120812360FC01208328E5DA
:1001400039E344E75FE369817A818B819C8190D1B7
:10015000882344F488E990E02FEF3FEFFC013183DE
:10016000208330C020E034E244EF56E469817A8194
:100170008B819C818FD2181634F488E990E0FC01C1
:10018000118210821FC008E910E020E030E040E05A
:1001900053E469817A818B819C8180D2DC01CB011F
:1001A0009C01AD0160E074E284EF9AE465D1DC016A
:1001B000CB01BC01CD01C8D1DC01CB010197F80115
:1001C0009183808384E990E0FC011182108289810F
:1001D0009A81AB81BC818093000190930101A0932F
:1001E0000201B093030100000F900F900F900F9049
:1001F000DF91CF911F910F910895CF93DF93CDB7EA
:10020000DEB780E990E020E4FC01208381E990E002
:100210002BE0FC01208360E070E0CB0155DF0000A3
:10022000DF91CF910895CF93DF93CDB7DEB780E212
:1002300090E0FC0180818093040180910401882F6B
:1002400090E08170992721E0892B09F420E0822F2A
:100250008093050180910401882F90E08270992796
:1002600021E0892B09F420E0822F80930601809100
:100270000401882F90E08470992721E0892B09F4EC
:1002800020E0822F8093070180910801909109015D
:100290008130910509F455C08130910540F08230DC
:1002A000910509F46FC0039709F48DC0AEC0809129
:1002B0000501882371F080910601882351F4809113
:1002C0000701882331F481E090E090930901809345
:1002D000080180910501882371F48091060188232B
:1002E00051F080910701882331F482E090E09093EF
:1002F00009018093080180910501882371F48091A0
:100300000601882351F480910701882331F083E0AE
:1003100090E0909309018093080180910501882362
:1003200009F072C080910601882309F06DC08091A8
:100330000701882309F068C060E070E0CB01C4DEEB
:1003400063C0809105018823A1F080910601882374
:1003500081F480910701882361F481E090E090931B
:1003600009018093080164EA70ED82E893E4ACDE51
:100370004CC0109209011092080160E070E0CB01BE
:10038000A3DE43C0809105018823A1F4809106017A
:10039000882381F080910701882361F482E090E056
:1003A00090930901809308016BE774ED82E993E46F
:1003B0008BDE2BC0109209011092080160E070E002
:1003C000CB0182DE22C0809105018823A1F48091B7
:1003D0000601882381F480910701882361F083E07E
:1003E00090E0909309018093080164EA70ED84EA3B
:1003F00093E46ADE0AC0109209011092080160E0DD
:1004000070E0CB0161DE01C000000000DF91CF9100
:100410000895CF93DF93CDB7DEB781E290E0FC0182
:10042000108282E290E02FEFFC01208384E290E0D2
:100430002FEFFC01208385E290E0FC01108287E22F
:1004400090E02FEFFC01208388E290E0FC01108215
:100450001092090110920801D0DEE5DE88E290E0FA
:1004600020910801309109012860FC012083F5CF1B
:100470009CD008F481E008950CD0D2C0CAD040F0DE
:10048000C1D030F021F45F3F19F0B3C05111FCC06E
:10049000B6C0D7D098F39923C9F35523B1F3951B70
:1004A000550BBB27AA2762177307840738F09F5F95
:1004B0005F4F220F331F441FAA1FA9F333D00E2E04
:1004C0003AF0E0E830D091505040E695001CCAF771
:1004D00029D0FE2F27D0660F771F881FBB1F261736
:1004E00037074807AB07B0E809F0BB0B802DBF0109
:1004F000FF2793585F4F2AF09E3F510568F079C05F
:10050000C3C05F3FECF3983EDCF386957795679523
:10051000B795F7959F5FC9F7880F911D96958795B9
:1005200097F90895E1E0660F771F881FBB1F6217D8
:1005300073078407BA0720F0621B730B840BBA0B96
:10054000EE1F88F7E095089504D06894B1119CC01F
:1005500008957FD088F09F5790F0B92F9927B75111
:10056000A0F0D1F0660F771F881F991F1AF0BA9577
:10057000C9F712C0B13081F086D0B1E0089583C0D0
:10058000672F782F8827B85F39F0B93FCCF386956D
:1005900077956795B395D9F73EF4909580957095CA
:1005A00061957F4F8F4F9F4F0895990F0008550F0A
:1005B000AA0BE0E8FEEF16161706E807F907C0F0E9
:1005C00012161306E407F50798F0621B730B840BF1
:1005D000950B39F40A2661F0232B242B252B21F4CB
:1005E00008950A2609F4A140A6958FEF811D811D6B
:1005F000089597F99F6780E870E060E008959FEFA5
:1006000080EC089500240A941616170618060906A9
:10061000089500240A941216130614060506089578
:10062000092E0394000C11F4882352F0BB0F40F400
:10063000BF2B11F460FF04C06F5F7F4F8F4F9F4F40
:10064000089557FD9058440F551F59F05F3F71F0C2
:100650004795880F97FB991F61F09F3F79F0879529
:100660000895121613061406551FF2CF4695F1DFB2
:1006700008C0161617061806991FF1CF8695710542
:10068000610508940895E894BB2766277727CB0176
:1006900097F908958ADF08F48FEF08950BD0C0CF43
:1006A000B1DF28F0B6DF18F0952309F0A2CFA7CF6D
:1006B0001124EACFC6DFA0F3959FD1F3950F50E048
:1006C000551F629FF001729FBB27F00DB11D639F04
:1006D000AA27F00DB11DAA1F649F6627B00DA11DAA
:1006E000661F829F2227B00DA11D621F739FB00D50
:1006F000A11D621F839FA00D611D221F749F3327C0
:10070000A00D611D231F849F600D211D822F762F58
:100710006A2F11249F5750408AF0E1F088234AF055
:10072000EE0FFF1FBB1F661F771F881F91505040A1
:10073000A9F79E3F510570F05CCFA6CF5F3FECF369
:10074000983EDCF3869577956795B795F795E7958D
:100750009F5FC1F7FE2B880F911D9695879597F99E
:060760000895F894FFCF9C
:00000001FF
