S01B000073626861743030365F6C6162375F70617274352E7372656351
S113000045C0000060C000005EC000005CC000008D
S11300105AC0000058C0000056C0000054C0000080
S113002052C0000050C000004EC000004CC0000090
S11300304AC000008BC0000046C0000044C000005D
S113004042C0000040C000003EC000003CC00000B0
S11300503AC0000038C0000036C0000034C00000C0
S113006032C0000030C000002EC000002CC00000D0
S11300702AC0000028C0000026C0000024C00000E0
S113008022C0000020C000001EC0000011241FBEBA
S1130090CFEFD0E4DEBFCDBF11E0A0E0B1E0E8EEE9
S11300A0F5E000E00BBF02C007900D92AA30B10743
S11300B0D9F721E0AAE0B1E001C01D92AA31B2074C
S11300C0E1F754D28FC29CCFCF93DF93CDB7DEB785
S11300D081E890E02BE0FC01208388E890E02DE7A4
S11300E030E0FC01318320838FE690E022E0FC01C4
S11300F0208384E890E0FC01118210828091060143
S113010090910701A0910801B09109018093100119
S113011090931101A0931201B09313018FE590E025
S11301202FE530E0F90120812068FC0120830000E4
S1130130DF91CF910895CF93DF93CDB7DEB781E000
S113014080930A010000DF91CF9108951F920F92CE
S113015000905F000F92112400905B000F922F9388
S11301603F934F935F936F937F938F939F93AF933B
S1130170BF93EF93FF93CF93DF93CDB7DEB7809117
S1130180100190911101A0911201B09113010197F6
S1130190A109B1098093100190931101A093120158
S11301A0B09313018091100190911101A09112015B
S11301B0B0911301892B8A2B8B2B89F4BCDF80919E
S11301C0060190910701A0910801B0910901809363
S11301D0100190931101A0931201B0931301000038
S11301E0DF91CF91FF91EF91BF91AF919F918F914B
S11301F07F916F915F914F913F912F910F9000925A
S11302005B000F9000925F000F901F901895CF93A2
S1130210DF9300D000D0CDB7DEB769837A838B83B8
S11302209C8389819A81AB81BC81809306019093E0
S11302300701A0930801B0930901809106019091F0
S11302400701A0910801B0910901809310019093D6
S11302501101A0931201B093130100000F900F90AD
S11302600F900F90DF91CF910895CF93DF931F925A
S1130270CDB7DEB780E290E0FC018081898389817B
S1130280882F90E08170992721E0892B09F420E0E0
S1130290822F809314018981882F90E0827099279E
S11302A021E0892B09F420E0822F809315018091AD
S11302B01601909117018130910509F45AC08130DB
S11302C0910538F08230910509F48BC00397E9F168
S11302D0BFC080911401882359F0809115018823AF
S11302E039F083E090E09093170180931601AFC03A
S11302F080911401882391F090910401809105016B
S1130300981728F4809104018F5F8093040181E0A1
S113031090E0909317018093160199C08091150184
S1130320882309F494C09091040180910B018917EA
S113033028F48091040181508093040182E090E0CC
S1130340909317018093160182C080911401882331
S113035059F080911501882339F083E090E090935F
S113036017018093160174C01092170110921601A0
S11303706FC080911401882389F08091150188232E
S113038069F083E090E09093170180931601109236
S11303900D0110920C011092040122C080911401ED
S11303A0882359F020910C0130910D0180910201B4
S11303B0909103018217930748F410921701109249
S11303C0160110920D0110920C010AC080910C01CB
S11303D090910D01019690930D0180930C0138C00A
S11303E037C080911401882381F0809115018823FE
S11303F061F083E090E090931701809316011092CE
S11304000D0110920C0110920401809115018823B2
S113041059F020910C0130910D01809102019091CD
S113042003018217930748F41092170110921601E2
S113043010920D0110920C010BC080910C0190914F
S11304400D01019690930D0180930C0101C00000F1
S113045000000F90DF91CF910895CF93DF93CDB734
S1130460DEB780911801909119018130910521F135
S11304708130910540F08230910509F44DC0039715
S113048009F445C04FC080911401882329F4809158
S11304901501882309F445C081E090E09093190187
S11304A08093180180910E0190910F010196909311
S11304B00F0180930E0135C020910E0130910F0180
S11304C080910001909101018217930738F482E032
S11304D090E0909319018093180124C08091140135
S11304E0882359F480911501882339F483E090E03E
S11304F0909319018093180115C080910E01909179
S11305000F01019690930F0180930E010BC010927E
S113051019011092180106C01092190110921801C5
S113052001C0000080911801909119018230910559
S113053019F0039761F016C080E991E090930301EC
S11305408093020110920F0110920E010BC088EEED
S113055093E0909303018093020110920F01109293
S11305600E0100000000DF91CF910895CF93DF9337
S1130570CDB7DEB784E290E02FEFFC01208385E263
S113058090E0FC01108281E290E0FC01108282E2A2
S113059090E02FEFFC01208361E070E080E090E0C8
S11305A036DE92DD10921701109216011092190195
S11305B01092180110920D0110920C0110920F016B
S11305C010920E0152DE49DF85E290E02091040191
S11305D0FC012083000080910A018823E1F310923A
S10B05E00A01F0CFF894FFCFEB
S10D05E8B80BE80307090100000046
S9030000FC
